{
  "contractName": "Greeter",
  "abi": [
    {
      "inputs": [],
      "stateMutability": "nonpayable",
      "type": "constructor"
    },
    {
      "anonymous": false,
      "inputs": [
        {
          "indexed": true,
          "internalType": "address",
          "name": "previousOwner",
          "type": "address"
        },
        {
          "indexed": true,
          "internalType": "address",
          "name": "newOwner",
          "type": "address"
        }
      ],
      "name": "OwnershipTransferred",
      "type": "event"
    },
    {
      "inputs": [],
      "name": "owner",
      "outputs": [
        {
          "internalType": "address",
          "name": "",
          "type": "address"
        }
      ],
      "stateMutability": "view",
      "type": "function"
    },
    {
      "inputs": [],
      "name": "renounceOwnership",
      "outputs": [],
      "stateMutability": "nonpayable",
      "type": "function"
    },
    {
      "inputs": [
        {
          "internalType": "address",
          "name": "newOwner",
          "type": "address"
        }
      ],
      "name": "transferOwnership",
      "outputs": [],
      "stateMutability": "nonpayable",
      "type": "function"
    },
    {
      "inputs": [],
      "name": "greet",
      "outputs": [
        {
          "internalType": "string",
          "name": "",
          "type": "string"
        }
      ],
      "stateMutability": "view",
      "type": "function"
    },
    {
      "inputs": [
        {
          "internalType": "string",
          "name": "greeting",
          "type": "string"
        }
      ],
      "name": "setGreeting",
      "outputs": [],
      "stateMutability": "nonpayable",
      "type": "function"
    }
  ],
  "bytecode": "0x60806040526040518060400160405280600d81526020017f48656c6c6f2c20576f726c642100000000000000000000000000000000000000815250600190816200004a9190620003c5565b503480156200005857600080fd5b50620000796200006d6200007f60201b60201c565b6200008760201b60201c565b620004ac565b600033905090565b60008060009054906101000a900473ffffffffffffffffffffffffffffffffffffffff169050816000806101000a81548173ffffffffffffffffffffffffffffffffffffffff021916908373ffffffffffffffffffffffffffffffffffffffff1602179055508173ffffffffffffffffffffffffffffffffffffffff168173ffffffffffffffffffffffffffffffffffffffff167f8be0079c531659141344cd1fd0a4f28419497f9722a3daafe3b4186f6b6457e060405160405180910390a35050565b600081519050919050565b7f4e487b7100000000000000000000000000000000000000000000000000000000600052604160045260246000fd5b7f4e487b7100000000000000000000000000000000000000000000000000000000600052602260045260246000fd5b60006002820490506001821680620001cd57607f821691505b602082108103620001e357620001e262000185565b5b50919050565b60008190508160005260206000209050919050565b60006020601f8301049050919050565b600082821b905092915050565b6000600883026200024d7fffffffffffffffffffffffffffffffffffffffffffffffffffffffffffffffff826200020e565b6200025986836200020e565b95508019841693508086168417925050509392505050565b6000819050919050565b6000819050919050565b6000620002a6620002a06200029a8462000271565b6200027b565b62000271565b9050919050565b6000819050919050565b620002c28362000285565b620002da620002d182620002ad565b8484546200021b565b825550505050565b600090565b620002f1620002e2565b620002fe818484620002b7565b505050565b5b8181101562000326576200031a600082620002e7565b60018101905062000304565b5050565b601f82111562000375576200033f81620001e9565b6200034a84620001fe565b810160208510156200035a578190505b620003726200036985620001fe565b83018262000303565b50505b505050565b600082821c905092915050565b60006200039a600019846008026200037a565b1980831691505092915050565b6000620003b5838362000387565b9150826002028217905092915050565b620003d0826200014b565b67ffffffffffffffff811115620003ec57620003eb62000156565b5b620003f88254620001b4565b620004058282856200032a565b600060209050601f8311600181146200043d576000841562000428578287015190505b620004348582620003a7565b865550620004a4565b601f1984166200044d86620001e9565b60005b82811015620004775784890151825560018201915060208501945060208101905062000450565b8683101562000497578489015162000493601f89168262000387565b8355505b6001600288020188555050505b505050505050565b610ae980620004bc6000396000f3fe608060405234801561001057600080fd5b50600436106100575760003560e01c8063715018a61461005c5780638da5cb5b14610066578063a413686214610084578063cfae3217146100a0578063f2fde38b146100be575b600080fd5b6100646100da565b005b61006e610162565b60405161007b91906104b3565b60405180910390f35b61009e6004803603810190610099919061053d565b61018b565b005b6100a861021d565b6040516100b5919061061a565b60405180910390f35b6100d860048036038101906100d39190610668565b6102af565b005b6100e26103a6565b73ffffffffffffffffffffffffffffffffffffffff16610100610162565b73ffffffffffffffffffffffffffffffffffffffff1614610156576040517f08c379a000000000000000000000000000000000000000000000000000000000815260040161014d906106e1565b60405180910390fd5b61016060006103ae565b565b60008060009054906101000a900473ffffffffffffffffffffffffffffffffffffffff16905090565b6101936103a6565b73ffffffffffffffffffffffffffffffffffffffff166101b1610162565b73ffffffffffffffffffffffffffffffffffffffff1614610207576040517f08c379a00000000000000000000000000000000000000000000000000000000081526004016101fe906106e1565b60405180910390fd5b818160019182610218929190610951565b505050565b60606001805461022c9061076a565b80601f01602080910402602001604051908101604052809291908181526020018280546102589061076a565b80156102a55780601f1061027a576101008083540402835291602001916102a5565b820191906000526020600020905b81548152906001019060200180831161028857829003601f168201915b5050505050905090565b6102b76103a6565b73ffffffffffffffffffffffffffffffffffffffff166102d5610162565b73ffffffffffffffffffffffffffffffffffffffff161461032b576040517f08c379a0000000000000000000000000000000000000000000000000000000008152600401610322906106e1565b60405180910390fd5b600073ffffffffffffffffffffffffffffffffffffffff168173ffffffffffffffffffffffffffffffffffffffff160361039a576040517f08c379a000000000000000000000000000000000000000000000000000000000815260040161039190610a93565b60405180910390fd5b6103a3816103ae565b50565b600033905090565b60008060009054906101000a900473ffffffffffffffffffffffffffffffffffffffff169050816000806101000a81548173ffffffffffffffffffffffffffffffffffffffff021916908373ffffffffffffffffffffffffffffffffffffffff1602179055508173ffffffffffffffffffffffffffffffffffffffff168173ffffffffffffffffffffffffffffffffffffffff167f8be0079c531659141344cd1fd0a4f28419497f9722a3daafe3b4186f6b6457e060405160405180910390a35050565b600073ffffffffffffffffffffffffffffffffffffffff82169050919050565b600061049d82610472565b9050919050565b6104ad81610492565b82525050565b60006020820190506104c860008301846104a4565b92915050565b600080fd5b600080fd5b600080fd5b600080fd5b600080fd5b60008083601f8401126104fd576104fc6104d8565b5b8235905067ffffffffffffffff81111561051a576105196104dd565b5b602083019150836001820283011115610536576105356104e2565b5b9250929050565b60008060208385031215610554576105536104ce565b5b600083013567ffffffffffffffff811115610572576105716104d3565b5b61057e858286016104e7565b92509250509250929050565b600081519050919050565b600082825260208201905092915050565b60005b838110156105c45780820151818401526020810190506105a9565b60008484015250505050565b6000601f19601f8301169050919050565b60006105ec8261058a565b6105f68185610595565b93506106068185602086016105a6565b61060f816105d0565b840191505092915050565b6000602082019050818103600083015261063481846105e1565b905092915050565b61064581610492565b811461065057600080fd5b50565b6000813590506106628161063c565b92915050565b60006020828403121561067e5761067d6104ce565b5b600061068c84828501610653565b91505092915050565b7f4f776e61626c653a2063616c6c6572206973206e6f7420746865206f776e6572600082015250565b60006106cb602083610595565b91506106d682610695565b602082019050919050565b600060208201905081810360008301526106fa816106be565b9050919050565b600082905092915050565b7f4e487b7100000000000000000000000000000000000000000000000000000000600052604160045260246000fd5b7f4e487b7100000000000000000000000000000000000000000000000000000000600052602260045260246000fd5b6000600282049050600182168061078257607f821691505b6020821081036107955761079461073b565b5b50919050565b60008190508160005260206000209050919050565b60006020601f8301049050919050565b600082821b905092915050565b6000600883026107fd7fffffffffffffffffffffffffffffffffffffffffffffffffffffffffffffffff826107c0565b61080786836107c0565b95508019841693508086168417925050509392505050565b6000819050919050565b6000819050919050565b600061084e6108496108448461081f565b610829565b61081f565b9050919050565b6000819050919050565b61086883610833565b61087c61087482610855565b8484546107cd565b825550505050565b600090565b610891610884565b61089c81848461085f565b505050565b5b818110156108c0576108b5600082610889565b6001810190506108a2565b5050565b601f821115610905576108d68161079b565b6108df846107b0565b810160208510156108ee578190505b6109026108fa856107b0565b8301826108a1565b50505b505050565b600082821c905092915050565b60006109286000198460080261090a565b1980831691505092915050565b60006109418383610917565b9150826002028217905092915050565b61095b8383610701565b67ffffffffffffffff8111156109745761097361070c565b5b61097e825461076a565b6109898282856108c4565b6000601f8311600181146109b857600084156109a6578287013590505b6109b08582610935565b865550610a18565b601f1984166109c68661079b565b60005b828110156109ee578489013582556001820191506020850194506020810190506109c9565b86831015610a0b5784890135610a07601f891682610917565b8355505b6001600288020188555050505b50505050505050565b7f4f776e61626c653a206e6577206f776e657220697320746865207a65726f206160008201527f6464726573730000000000000000000000000000000000000000000000000000602082015250565b6000610a7d602683610595565b9150610a8882610a21565b604082019050919050565b60006020820190508181036000830152610aac81610a70565b905091905056fea264697066735822122017ae57b6bf724dcc6041fea8bb8835de93a1d645457c1a92055e76b80295474064736f6c63430008110033",
  "immutableReferences": {},
  "source": "pragma solidity ^0.8.17;\n\nimport \"openzeppelin-solidity/contracts/access/Ownable.sol\";\n\ncontract Greeter is Ownable {\n    string private _greeting = \"Hello, World!\";\n\n    // it doesn't need if openzeppelin is imported\n    // address private _owner;\n\n    constructor() public {\n        // it doesn't need if openzeppelin is imported\n        // _owner = msg.sender;\n    }\n\n    // it doesn't need if openzeppelin is imported\n    // modifier onlyOwner() {\n    //     require(msg.sender == _owner, \"Ownable: caller is not the owner\");\n    //     // _\n    //     _;\n    // }\n\n    function greet() external view returns (string memory) {\n        return _greeting;\n    }\n\n    function setGreeting(string calldata greeting) external onlyOwner {\n        _greeting = greeting;\n    }\n\n    // it doesn't need if openzeppelin is imported\n    // function owner() public view returns (address) {\n    //     return _owner;\n    // }\n}\n",
  "sourcePath": "/Users/takaomizuno/Projects/eth/greeter/contracts/Greeter.sol",
  "compiler": {
    "name": "solc",
    "version": "0.8.17+commit.8df45f5f.Emscripten.clang"
  },
  "schemaVersion": "3.4.11",
  "updatedAt": "2022-12-03T11:07:31.527Z",
  "devdoc": {
    "kind": "dev",
    "methods": {
      "owner()": {
        "details": "Returns the address of the current owner."
      },
      "renounceOwnership()": {
        "details": "Leaves the contract without owner. It will not be possible to call `onlyOwner` functions anymore. Can only be called by the current owner. NOTE: Renouncing ownership will leave the contract without an owner, thereby removing any functionality that is only available to the owner."
      },
      "transferOwnership(address)": {
        "details": "Transfers ownership of the contract to a new account (`newOwner`). Can only be called by the current owner."
      }
    },
    "version": 1
  },
  "userdoc": {
    "kind": "user",
    "methods": {},
    "version": 1
  }
}